{
  "contractName": "KLIP",
  "abi": [
    {
      "inputs": [
        {
          "internalType": "address",
          "name": "tokenERC20",
          "type": "address"
        },
        {
          "internalType": "address",
          "name": "newPaymentAddress",
          "type": "address"
        }
      ],
      "stateMutability": "nonpayable",
      "type": "constructor"
    },
    {
      "anonymous": false,
      "inputs": [
        {
          "indexed": true,
          "internalType": "address",
          "name": "owner",
          "type": "address"
        },
        {
          "indexed": true,
          "internalType": "address",
          "name": "approved",
          "type": "address"
        },
        {
          "indexed": true,
          "internalType": "uint256",
          "name": "tokenId",
          "type": "uint256"
        }
      ],
      "name": "Approval",
      "type": "event"
    },
    {
      "anonymous": false,
      "inputs": [
        {
          "indexed": true,
          "internalType": "address",
          "name": "owner",
          "type": "address"
        },
        {
          "indexed": true,
          "internalType": "address",
          "name": "operator",
          "type": "address"
        },
        {
          "indexed": false,
          "internalType": "bool",
          "name": "approved",
          "type": "bool"
        }
      ],
      "name": "ApprovalForAll",
      "type": "event"
    },
    {
      "anonymous": false,
      "inputs": [
        {
          "indexed": true,
          "internalType": "address",
          "name": "publisher",
          "type": "address"
        },
        {
          "indexed": true,
          "internalType": "string",
          "name": "publisherDid",
          "type": "string"
        },
        {
          "indexed": false,
          "internalType": "bytes",
          "name": "documentURI",
          "type": "bytes"
        },
        {
          "indexed": false,
          "internalType": "uint256",
          "name": "id",
          "type": "uint256"
        }
      ],
      "name": "DocumentAnchored",
      "type": "event"
    },
    {
      "anonymous": false,
      "inputs": [
        {
          "indexed": true,
          "internalType": "address",
          "name": "previousOwner",
          "type": "address"
        },
        {
          "indexed": true,
          "internalType": "address",
          "name": "newOwner",
          "type": "address"
        }
      ],
      "name": "OwnershipTransferred",
      "type": "event"
    },
    {
      "anonymous": false,
      "inputs": [
        {
          "indexed": false,
          "internalType": "address",
          "name": "account",
          "type": "address"
        }
      ],
      "name": "Paused",
      "type": "event"
    },
    {
      "anonymous": false,
      "inputs": [
        {
          "indexed": true,
          "internalType": "uint256",
          "name": "tokenId",
          "type": "uint256"
        },
        {
          "indexed": true,
          "internalType": "address",
          "name": "from",
          "type": "address"
        },
        {
          "indexed": true,
          "internalType": "address",
          "name": "paymentAddress",
          "type": "address"
        },
        {
          "indexed": false,
          "internalType": "uint256",
          "name": "paidToContract",
          "type": "uint256"
        },
        {
          "indexed": false,
          "internalType": "uint256",
          "name": "paidToPaymentAddress",
          "type": "uint256"
        }
      ],
      "name": "ServiceFeePaid",
      "type": "event"
    },
    {
      "anonymous": false,
      "inputs": [
        {
          "indexed": true,
          "internalType": "address",
          "name": "from",
          "type": "address"
        },
        {
          "indexed": true,
          "internalType": "address",
          "name": "to",
          "type": "address"
        },
        {
          "indexed": true,
          "internalType": "uint256",
          "name": "tokenId",
          "type": "uint256"
        }
      ],
      "name": "Transfer",
      "type": "event"
    },
    {
      "anonymous": false,
      "inputs": [
        {
          "indexed": false,
          "internalType": "address",
          "name": "account",
          "type": "address"
        }
      ],
      "name": "Unpaused",
      "type": "event"
    },
    {
      "anonymous": false,
      "inputs": [
        {
          "indexed": true,
          "internalType": "address",
          "name": "paymentAddress",
          "type": "address"
        },
        {
          "indexed": false,
          "internalType": "uint256",
          "name": "amount",
          "type": "uint256"
        }
      ],
      "name": "Withdrawn",
      "type": "event"
    },
    {
      "inputs": [
        {
          "internalType": "address",
          "name": "to",
          "type": "address"
        },
        {
          "internalType": "uint256",
          "name": "tokenId",
          "type": "uint256"
        }
      ],
      "name": "approve",
      "outputs": [],
      "stateMutability": "nonpayable",
      "type": "function"
    },
    {
      "inputs": [
        {
          "internalType": "address",
          "name": "owner",
          "type": "address"
        }
      ],
      "name": "balanceOf",
      "outputs": [
        {
          "internalType": "uint256",
          "name": "",
          "type": "uint256"
        }
      ],
      "stateMutability": "view",
      "type": "function",
      "constant": true
    },
    {
      "inputs": [
        {
          "internalType": "uint256",
          "name": "tokenId",
          "type": "uint256"
        }
      ],
      "name": "burn",
      "outputs": [],
      "stateMutability": "nonpayable",
      "type": "function"
    },
    {
      "inputs": [],
      "name": "fee",
      "outputs": [
        {
          "internalType": "uint256",
          "name": "",
          "type": "uint256"
        }
      ],
      "stateMutability": "view",
      "type": "function",
      "constant": true
    },
    {
      "inputs": [
        {
          "internalType": "uint256",
          "name": "",
          "type": "uint256"
        }
      ],
      "name": "fileUri",
      "outputs": [
        {
          "internalType": "string",
          "name": "",
          "type": "string"
        }
      ],
      "stateMutability": "view",
      "type": "function",
      "constant": true
    },
    {
      "inputs": [
        {
          "internalType": "uint256",
          "name": "tokenId",
          "type": "uint256"
        }
      ],
      "name": "getApproved",
      "outputs": [
        {
          "internalType": "address",
          "name": "",
          "type": "address"
        }
      ],
      "stateMutability": "view",
      "type": "function",
      "constant": true
    },
    {
      "inputs": [
        {
          "internalType": "address",
          "name": "owner",
          "type": "address"
        },
        {
          "internalType": "address",
          "name": "operator",
          "type": "address"
        }
      ],
      "name": "isApprovedForAll",
      "outputs": [
        {
          "internalType": "bool",
          "name": "",
          "type": "bool"
        }
      ],
      "stateMutability": "view",
      "type": "function",
      "constant": true
    },
    {
      "inputs": [
        {
          "internalType": "bytes32",
          "name": "hash",
          "type": "bytes32"
        },
        {
          "internalType": "bytes",
          "name": "signature",
          "type": "bytes"
        }
      ],
      "name": "isValidSignature",
      "outputs": [
        {
          "internalType": "bytes4",
          "name": "magicValue",
          "type": "bytes4"
        }
      ],
      "stateMutability": "view",
      "type": "function",
      "constant": true
    },
    {
      "inputs": [
        {
          "internalType": "address",
          "name": "",
          "type": "address"
        }
      ],
      "name": "minterCounter",
      "outputs": [
        {
          "internalType": "uint256",
          "name": "",
          "type": "uint256"
        }
      ],
      "stateMutability": "view",
      "type": "function",
      "constant": true
    },
    {
      "inputs": [
        {
          "internalType": "address",
          "name": "",
          "type": "address"
        }
      ],
      "name": "minterDocumentRequestCounter",
      "outputs": [
        {
          "internalType": "uint256",
          "name": "",
          "type": "uint256"
        }
      ],
      "stateMutability": "view",
      "type": "function",
      "constant": true
    },
    {
      "inputs": [
        {
          "internalType": "address",
          "name": "",
          "type": "address"
        },
        {
          "internalType": "uint256",
          "name": "",
          "type": "uint256"
        }
      ],
      "name": "minterDocumentRequests",
      "outputs": [
        {
          "internalType": "address",
          "name": "publisher",
          "type": "address"
        },
        {
          "internalType": "address",
          "name": "buyer",
          "type": "address"
        },
        {
          "internalType": "string",
          "name": "buyerDid",
          "type": "string"
        },
        {
          "internalType": "bytes",
          "name": "documentURI",
          "type": "bytes"
        },
        {
          "internalType": "uint256",
          "name": "status",
          "type": "uint256"
        },
        {
          "internalType": "bool",
          "name": "encrypted",
          "type": "bool"
        },
        {
          "internalType": "uint256",
          "name": "qty",
          "type": "uint256"
        }
      ],
      "stateMutability": "view",
      "type": "function",
      "constant": true
    },
    {
      "inputs": [],
      "name": "name",
      "outputs": [
        {
          "internalType": "string",
          "name": "",
          "type": "string"
        }
      ],
      "stateMutability": "view",
      "type": "function",
      "constant": true
    },
    {
      "inputs": [],
      "name": "owner",
      "outputs": [
        {
          "internalType": "address",
          "name": "",
          "type": "address"
        }
      ],
      "stateMutability": "view",
      "type": "function",
      "constant": true
    },
    {
      "inputs": [
        {
          "internalType": "uint256",
          "name": "tokenId",
          "type": "uint256"
        }
      ],
      "name": "ownerOf",
      "outputs": [
        {
          "internalType": "address",
          "name": "",
          "type": "address"
        }
      ],
      "stateMutability": "view",
      "type": "function",
      "constant": true
    },
    {
      "inputs": [],
      "name": "paused",
      "outputs": [
        {
          "internalType": "bool",
          "name": "",
          "type": "bool"
        }
      ],
      "stateMutability": "view",
      "type": "function",
      "constant": true
    },
    {
      "inputs": [],
      "name": "paymentAddress",
      "outputs": [
        {
          "internalType": "address",
          "name": "",
          "type": "address"
        }
      ],
      "stateMutability": "view",
      "type": "function",
      "constant": true
    },
    {
      "inputs": [],
      "name": "publisherCount",
      "outputs": [
        {
          "internalType": "uint256",
          "name": "",
          "type": "uint256"
        }
      ],
      "stateMutability": "view",
      "type": "function",
      "constant": true
    },
    {
      "inputs": [],
      "name": "renounceOwnership",
      "outputs": [],
      "stateMutability": "nonpayable",
      "type": "function"
    },
    {
      "inputs": [],
      "name": "royalty",
      "outputs": [
        {
          "internalType": "uint256",
          "name": "",
          "type": "uint256"
        }
      ],
      "stateMutability": "view",
      "type": "function",
      "constant": true
    },
    {
      "inputs": [
        {
          "internalType": "address",
          "name": "from",
          "type": "address"
        },
        {
          "internalType": "address",
          "name": "to",
          "type": "address"
        },
        {
          "internalType": "uint256",
          "name": "tokenId",
          "type": "uint256"
        }
      ],
      "name": "safeTransferFrom",
      "outputs": [],
      "stateMutability": "nonpayable",
      "type": "function"
    },
    {
      "inputs": [
        {
          "internalType": "address",
          "name": "from",
          "type": "address"
        },
        {
          "internalType": "address",
          "name": "to",
          "type": "address"
        },
        {
          "internalType": "uint256",
          "name": "tokenId",
          "type": "uint256"
        },
        {
          "internalType": "bytes",
          "name": "_data",
          "type": "bytes"
        }
      ],
      "name": "safeTransferFrom",
      "outputs": [],
      "stateMutability": "nonpayable",
      "type": "function"
    },
    {
      "inputs": [
        {
          "internalType": "address",
          "name": "operator",
          "type": "address"
        },
        {
          "internalType": "bool",
          "name": "approved",
          "type": "bool"
        }
      ],
      "name": "setApprovalForAll",
      "outputs": [],
      "stateMutability": "nonpayable",
      "type": "function"
    },
    {
      "inputs": [],
      "name": "stablecoin",
      "outputs": [
        {
          "internalType": "contract IERC20",
          "name": "",
          "type": "address"
        }
      ],
      "stateMutability": "view",
      "type": "function",
      "constant": true
    },
    {
      "inputs": [],
      "name": "symbol",
      "outputs": [
        {
          "internalType": "string",
          "name": "",
          "type": "string"
        }
      ],
      "stateMutability": "view",
      "type": "function",
      "constant": true
    },
    {
      "inputs": [
        {
          "internalType": "uint256",
          "name": "index",
          "type": "uint256"
        }
      ],
      "name": "tokenByIndex",
      "outputs": [
        {
          "internalType": "uint256",
          "name": "",
          "type": "uint256"
        }
      ],
      "stateMutability": "view",
      "type": "function",
      "constant": true
    },
    {
      "inputs": [
        {
          "internalType": "address",
          "name": "owner",
          "type": "address"
        },
        {
          "internalType": "uint256",
          "name": "index",
          "type": "uint256"
        }
      ],
      "name": "tokenOfOwnerByIndex",
      "outputs": [
        {
          "internalType": "uint256",
          "name": "",
          "type": "uint256"
        }
      ],
      "stateMutability": "view",
      "type": "function",
      "constant": true
    },
    {
      "inputs": [
        {
          "internalType": "uint256",
          "name": "tokenId",
          "type": "uint256"
        }
      ],
      "name": "tokenURI",
      "outputs": [
        {
          "internalType": "string",
          "name": "",
          "type": "string"
        }
      ],
      "stateMutability": "view",
      "type": "function",
      "constant": true
    },
    {
      "inputs": [],
      "name": "totalSupply",
      "outputs": [
        {
          "internalType": "uint256",
          "name": "",
          "type": "uint256"
        }
      ],
      "stateMutability": "view",
      "type": "function",
      "constant": true
    },
    {
      "inputs": [
        {
          "internalType": "address",
          "name": "from",
          "type": "address"
        },
        {
          "internalType": "address",
          "name": "to",
          "type": "address"
        },
        {
          "internalType": "uint256",
          "name": "tokenId",
          "type": "uint256"
        }
      ],
      "name": "transferFrom",
      "outputs": [],
      "stateMutability": "nonpayable",
      "type": "function"
    },
    {
      "inputs": [
        {
          "internalType": "address",
          "name": "newOwner",
          "type": "address"
        }
      ],
      "name": "transferOwnership",
      "outputs": [],
      "stateMutability": "nonpayable",
      "type": "function"
    },
    {
      "inputs": [
        {
          "internalType": "uint256",
          "name": "_fee",
          "type": "uint256"
        }
      ],
      "name": "setServiceRoyalty",
      "outputs": [],
      "stateMutability": "nonpayable",
      "type": "function"
    },
    {
      "inputs": [
        {
          "internalType": "uint256",
          "name": "_fee",
          "type": "uint256"
        }
      ],
      "name": "setServiceFee",
      "outputs": [],
      "stateMutability": "nonpayable",
      "type": "function"
    },
    {
      "inputs": [
        {
          "internalType": "address",
          "name": "newAddress",
          "type": "address"
        }
      ],
      "name": "setPaymentAddress",
      "outputs": [],
      "stateMutability": "nonpayable",
      "type": "function"
    },
    {
      "inputs": [
        {
          "internalType": "bytes4",
          "name": "interfaceId",
          "type": "bytes4"
        }
      ],
      "name": "supportsInterface",
      "outputs": [
        {
          "internalType": "bool",
          "name": "",
          "type": "bool"
        }
      ],
      "stateMutability": "view",
      "type": "function",
      "constant": true
    },
    {
      "inputs": [
        {
          "internalType": "uint256",
          "name": "qty",
          "type": "uint256"
        },
        {
          "internalType": "address",
          "name": "buyer",
          "type": "address"
        },
        {
          "internalType": "string",
          "name": "buyerDid",
          "type": "string"
        },
        {
          "internalType": "bytes",
          "name": "documentURI",
          "type": "bytes"
        },
        {
          "internalType": "bool",
          "name": "encrypted",
          "type": "bool"
        },
        {
          "internalType": "string",
          "name": "name",
          "type": "string"
        },
        {
          "internalType": "string",
          "name": "did",
          "type": "string"
        }
      ],
      "name": "mint",
      "outputs": [
        {
          "internalType": "bool",
          "name": "",
          "type": "bool"
        }
      ],
      "stateMutability": "nonpayable",
      "type": "function"
    },
    {
      "inputs": [],
      "name": "pause",
      "outputs": [],
      "stateMutability": "nonpayable",
      "type": "function"
    },
    {
      "inputs": [],
      "name": "unpause",
      "outputs": [],
      "stateMutability": "nonpayable",
      "type": "function"
    },
    {
      "inputs": [
        {
          "internalType": "address payable",
          "name": "payee",
          "type": "address"
        }
      ],
      "name": "withdrawBalance",
      "outputs": [],
      "stateMutability": "nonpayable",
      "type": "function"
    }
  ],
  "bytecode": "0x6080604052600060135560006014553480156200001b57600080fd5b50604051620060ba380380620060ba833981810160405281019062000041919062000305565b6040518060400160405280600881526020017f4b4c4950204e46540000000000000000000000000000000000000000000000008152506040518060400160405280600481526020017f4b4c4950000000000000000000000000000000000000000000000000000000008152506000620000bf6200023660201b60201c565b9050806000806101000a81548173ffffffffffffffffffffffffffffffffffffffff021916908373ffffffffffffffffffffffffffffffffffffffff1602179055508073ffffffffffffffffffffffffffffffffffffffff16600073ffffffffffffffffffffffffffffffffffffffff167f8be0079c531659141344cd1fd0a4f28419497f9722a3daafe3b4186f6b6457e060405160405180910390a3508160069080519060200190620001759291906200023e565b5080600790805190602001906200018e9291906200023e565b5050506000600c60006101000a81548160ff02191690831515021790555080601560006101000a81548173ffffffffffffffffffffffffffffffffffffffff021916908373ffffffffffffffffffffffffffffffffffffffff16021790555081601260006101000a81548173ffffffffffffffffffffffffffffffffffffffff021916908373ffffffffffffffffffffffffffffffffffffffff1602179055505050620003f9565b600033905090565b8280546200024c906200037a565b90600052602060002090601f016020900481019282620002705760008555620002bc565b82601f106200028b57805160ff1916838001178555620002bc565b82800160010185558215620002bc579182015b82811115620002bb5782518255916020019190600101906200029e565b5b509050620002cb9190620002cf565b5090565b5b80821115620002ea576000816000905550600101620002d0565b5090565b600081519050620002ff81620003df565b92915050565b600080604083850312156200031957600080fd5b60006200032985828601620002ee565b92505060206200033c85828601620002ee565b9150509250929050565b600062000353826200035a565b9050919050565b600073ffffffffffffffffffffffffffffffffffffffff82169050919050565b600060028204905060018216806200039357607f821691505b60208210811415620003aa57620003a9620003b0565b5b50919050565b7f4e487b7100000000000000000000000000000000000000000000000000000000600052602260045260246000fd5b620003ea8162000346565b8114620003f657600080fd5b50565b615cb180620004096000396000f3fe608060405234801561001057600080fd5b50600436106102325760003560e01c8063633423be1161013057806395d89b41116100b8578063ddca3f431161007c578063ddca3f43146106b5578063e985e9c5146106d3578063e9cbd82214610703578063f2fde38b14610721578063f5eed98d1461073d57610232565b806395d89b41146105ff578063a22cb4651461061d578063b88d4fde14610639578063c87b56dd14610655578063d6d2c4441461068557610232565b8063715018a6116100ff578063715018a614610581578063756af45f1461058b578063761901bb146105a75780638456cb59146105d75780638da5cb5b146105e157610232565b8063633423be146104cd5780636352211e146104eb5780636efaa6991461051b57806370a082311461055157610232565b80632f745c59116101be5780634f6ccce7116101825780634f6ccce71461042b57806354d7a2b51461045b5780635c975abb146104775780635cdf76f8146104955780635e1e1004146104b157610232565b80632f745c59146103895780633f4ba83a146103b957806342842e0e146103c357806342966c68146103df578063435da82a146103fb57610232565b80631626ba7e116102055780631626ba7e146102d157806318160ddd1461030157806323b872dd1461031f57806329ee566c1461033b5780632aa222c81461035957610232565b806301ffc9a71461023757806306fdde0314610267578063081812fc14610285578063095ea7b3146102b5575b600080fd5b610251600480360381019061024c9190614217565b61075b565b60405161025e9190614ac8565b60405180910390f35b61026f61076d565b60405161027c9190614b8e565b60405180910390f35b61029f600480360381019061029a9190614269565b6107ff565b6040516102ac919061495b565b60405180910390f35b6102cf60048036038101906102ca919061415e565b610884565b005b6102eb60048036038101906102e691906141c3565b61099c565b6040516102f89190614b28565b60405180910390f35b610309610a01565b6040516103169190614f90565b60405180910390f35b61033960048036038101906103349190614058565b610a0e565b005b610343610a6e565b6040516103509190614f90565b60405180910390f35b610373600480360381019061036e9190613fca565b610a74565b6040516103809190614f90565b60405180910390f35b6103a3600480360381019061039e919061415e565b610a8c565b6040516103b09190614f90565b60405180910390f35b6103c1610b31565b005b6103dd60048036038101906103d89190614058565b610bb7565b005b6103f960048036038101906103f49190614269565b610bd7565b005b61041560048036038101906104109190614269565b610c33565b6040516104229190614b8e565b60405180910390f35b61044560048036038101906104409190614269565b610cd3565b6040516104529190614f90565b60405180910390f35b61047560048036038101906104709190614269565b610d6a565b005b61047f610df0565b60405161048c9190614ac8565b60405180910390f35b6104af60048036038101906104aa9190614269565b610e07565b005b6104cb60048036038101906104c69190613fca565b610e8d565b005b6104d5610f4d565b6040516104e2919061495b565b60405180910390f35b61050560048036038101906105009190614269565b610f73565b604051610512919061495b565b60405180910390f35b6105356004803603810190610530919061415e565b611025565b60405161054897969594939291906149c8565b60405180910390f35b61056b60048036038101906105669190613fca565b6111d1565b6040516105789190614f90565b60405180910390f35b610589611289565b005b6105a560048036038101906105a09190613ff3565b6113c3565b005b6105c160048036038101906105bc9190613fca565b6115f0565b6040516105ce9190614f90565b60405180910390f35b6105df611608565b005b6105e961168e565b6040516105f6919061495b565b60405180910390f35b6106076116b7565b6040516106149190614b8e565b60405180910390f35b61063760048036038101906106329190614122565b611749565b005b610653600480360381019061064e91906140a7565b6118ca565b005b61066f600480360381019061066a9190614269565b61192c565b60405161067c9190614b8e565b60405180910390f35b61069f600480360381019061069a91906142bb565b6119d3565b6040516106ac9190614ac8565b60405180910390f35b6106bd612126565b6040516106ca9190614f90565b60405180910390f35b6106ed60048036038101906106e8919061401c565b61212c565b6040516106fa9190614ac8565b60405180910390f35b61070b6121c0565b6040516107189190614b73565b60405180910390f35b61073b60048036038101906107369190613fca565b6121e6565b005b61074561238f565b6040516107529190614f90565b60405180910390f35b600061076682612395565b9050919050565b60606006805461077c906152a4565b80601f01602080910402602001604051908101604052809291908181526020018280546107a8906152a4565b80156107f55780601f106107ca576101008083540402835291602001916107f5565b820191906000526020600020905b8154815290600101906020018083116107d857829003601f168201915b5050505050905090565b600061080a8261240f565b610849576040517f08c379a000000000000000000000000000000000000000000000000000000000815260040161084090614e70565b60405180910390fd5b600a600083815260200190815260200160002060009054906101000a900473ffffffffffffffffffffffffffffffffffffffff169050919050565b600061088f82610f73565b90508073ffffffffffffffffffffffffffffffffffffffff168373ffffffffffffffffffffffffffffffffffffffff161415610900576040517f08c379a00000000000000000000000000000000000000000000000000000000081526004016108f790614ef0565b60405180910390fd5b8073ffffffffffffffffffffffffffffffffffffffff1661091f61247b565b73ffffffffffffffffffffffffffffffffffffffff16148061094e575061094d8161094861247b565b61212c565b5b61098d576040517f08c379a000000000000000000000000000000000000000000000000000000000815260040161098490614d90565b60405180910390fd5b6109978383612483565b505050565b6000806109a9848461253c565b90506109b361168e565b73ffffffffffffffffffffffffffffffffffffffff168173ffffffffffffffffffffffffffffffffffffffff16146109ef57600060e01b6109f8565b631626ba7e60e01b5b91505092915050565b6000600f80549050905090565b610a1f610a1961247b565b82612606565b610a5e576040517f08c379a0000000000000000000000000000000000000000000000000000000008152600401610a5590614f10565b60405180910390fd5b610a698383836126e4565b505050565b60135481565b60046020528060005260406000206000915090505481565b6000610a97836111d1565b8210610ad8576040517f08c379a0000000000000000000000000000000000000000000000000000000008152600401610acf90614c50565b60405180910390fd5b600d60008473ffffffffffffffffffffffffffffffffffffffff1673ffffffffffffffffffffffffffffffffffffffff168152602001908152602001600020600083815260200190815260200160002054905092915050565b610b3961247b565b73ffffffffffffffffffffffffffffffffffffffff16610b5761168e565b73ffffffffffffffffffffffffffffffffffffffff1614610bad576040517f08c379a0000000000000000000000000000000000000000000000000000000008152600401610ba490614e90565b60405180910390fd5b610bb5612940565b565b610bd2838383604051806020016040528060008152506118ca565b505050565b610be8610be261247b565b82612606565b610c27576040517f08c379a0000000000000000000000000000000000000000000000000000000008152600401610c1e90614f50565b60405180910390fd5b610c30816129e2565b50565b60166020528060005260406000206000915090508054610c52906152a4565b80601f0160208091040260200160405190810160405280929190818152602001828054610c7e906152a4565b8015610ccb5780601f10610ca057610100808354040283529160200191610ccb565b820191906000526020600020905b815481529060010190602001808311610cae57829003601f168201915b505050505081565b6000610cdd610a01565b8210610d1e576040517f08c379a0000000000000000000000000000000000000000000000000000000008152600401610d1590614f30565b60405180910390fd5b600f8281548110610d58577f4e487b7100000000000000000000000000000000000000000000000000000000600052603260045260246000fd5b90600052602060002001549050919050565b610d7261247b565b73ffffffffffffffffffffffffffffffffffffffff16610d9061168e565b73ffffffffffffffffffffffffffffffffffffffff1614610de6576040517f08c379a0000000000000000000000000000000000000000000000000000000008152600401610ddd90614e90565b60405180910390fd5b8060138190555050565b6000600c60009054906101000a900460ff16905090565b610e0f61247b565b73ffffffffffffffffffffffffffffffffffffffff16610e2d61168e565b73ffffffffffffffffffffffffffffffffffffffff1614610e83576040517f08c379a0000000000000000000000000000000000000000000000000000000008152600401610e7a90614e90565b60405180910390fd5b8060148190555050565b610e9561247b565b73ffffffffffffffffffffffffffffffffffffffff16610eb361168e565b73ffffffffffffffffffffffffffffffffffffffff1614610f09576040517f08c379a0000000000000000000000000000000000000000000000000000000008152600401610f0090614e90565b60405180910390fd5b80601560006101000a81548173ffffffffffffffffffffffffffffffffffffffff021916908373ffffffffffffffffffffffffffffffffffffffff16021790555050565b601560009054906101000a900473ffffffffffffffffffffffffffffffffffffffff1681565b6000806008600084815260200190815260200160002060009054906101000a900473ffffffffffffffffffffffffffffffffffffffff169050600073ffffffffffffffffffffffffffffffffffffffff168173ffffffffffffffffffffffffffffffffffffffff16141561101c576040517f08c379a000000000000000000000000000000000000000000000000000000000815260040161101390614df0565b60405180910390fd5b80915050919050565b6005602052816000526040600020602052806000526040600020600091509150508060000160009054906101000a900473ffffffffffffffffffffffffffffffffffffffff16908060010160009054906101000a900473ffffffffffffffffffffffffffffffffffffffff16908060020180546110a1906152a4565b80601f01602080910402602001604051908101604052809291908181526020018280546110cd906152a4565b801561111a5780601f106110ef5761010080835404028352916020019161111a565b820191906000526020600020905b8154815290600101906020018083116110fd57829003601f168201915b50505050509080600301805461112f906152a4565b80601f016020809104026020016040519081016040528092919081815260200182805461115b906152a4565b80156111a85780601f1061117d576101008083540402835291602001916111a8565b820191906000526020600020905b81548152906001019060200180831161118b57829003601f168201915b5050505050908060040154908060050160009054906101000a900460ff16908060060154905087565b60008073ffffffffffffffffffffffffffffffffffffffff168273ffffffffffffffffffffffffffffffffffffffff161415611242576040517f08c379a000000000000000000000000000000000000000000000000000000000815260040161123990614dd0565b60405180910390fd5b600960008373ffffffffffffffffffffffffffffffffffffffff1673ffffffffffffffffffffffffffffffffffffffff168152602001908152602001600020549050919050565b61129161247b565b73ffffffffffffffffffffffffffffffffffffffff166112af61168e565b73ffffffffffffffffffffffffffffffffffffffff1614611305576040517f08c379a00000000000000000000000000000000000000000000000000000000081526004016112fc90614e90565b60405180910390fd5b600073ffffffffffffffffffffffffffffffffffffffff1660008054906101000a900473ffffffffffffffffffffffffffffffffffffffff1673ffffffffffffffffffffffffffffffffffffffff167f8be0079c531659141344cd1fd0a4f28419497f9722a3daafe3b4186f6b6457e060405160405180910390a360008060006101000a81548173ffffffffffffffffffffffffffffffffffffffff021916908373ffffffffffffffffffffffffffffffffffffffff160217905550565b6113cb61247b565b73ffffffffffffffffffffffffffffffffffffffff166113e961168e565b73ffffffffffffffffffffffffffffffffffffffff161461143f576040517f08c379a000000000000000000000000000000000000000000000000000000000815260040161143690614e90565b60405180910390fd5b6000601260009054906101000a900473ffffffffffffffffffffffffffffffffffffffff1673ffffffffffffffffffffffffffffffffffffffff166370a08231306040518263ffffffff1660e01b815260040161149c919061495b565b60206040518083038186803b1580156114b457600080fd5b505afa1580156114c8573d6000803e3d6000fd5b505050506040513d601f19601f820116820180604052508101906114ec9190614292565b9050601260009054906101000a900473ffffffffffffffffffffffffffffffffffffffff1673ffffffffffffffffffffffffffffffffffffffff1663a9059cbb83836040518363ffffffff1660e01b815260040161154b929190614976565b602060405180830381600087803b15801561156557600080fd5b505af1158015611579573d6000803e3d6000fd5b505050506040513d601f19601f8201168201806040525081019061159d919061419a565b508173ffffffffffffffffffffffffffffffffffffffff167f7084f5476618d8e60b11ef0d7d3f06914655adb8793e28ff7f018d4c76d505d5826040516115e49190614f90565b60405180910390a25050565b60036020528060005260406000206000915090505481565b61161061247b565b73ffffffffffffffffffffffffffffffffffffffff1661162e61168e565b73ffffffffffffffffffffffffffffffffffffffff1614611684576040517f08c379a000000000000000000000000000000000000000000000000000000000815260040161167b90614e90565b60405180910390fd5b61168c612af3565b565b60008060009054906101000a900473ffffffffffffffffffffffffffffffffffffffff16905090565b6060600780546116c6906152a4565b80601f01602080910402602001604051908101604052809291908181526020018280546116f2906152a4565b801561173f5780601f106117145761010080835404028352916020019161173f565b820191906000526020600020905b81548152906001019060200180831161172257829003601f168201915b5050505050905090565b61175161247b565b73ffffffffffffffffffffffffffffffffffffffff168273ffffffffffffffffffffffffffffffffffffffff1614156117bf576040517f08c379a00000000000000000000000000000000000000000000000000000000081526004016117b690614cf0565b60405180910390fd5b80600b60006117cc61247b565b73ffffffffffffffffffffffffffffffffffffffff1673ffffffffffffffffffffffffffffffffffffffff16815260200190815260200160002060008473ffffffffffffffffffffffffffffffffffffffff1673ffffffffffffffffffffffffffffffffffffffff16815260200190815260200160002060006101000a81548160ff0219169083151502179055508173ffffffffffffffffffffffffffffffffffffffff1661187961247b565b73ffffffffffffffffffffffffffffffffffffffff167f17307eab39ab6107e8899845ad3d59bd9653f200f220920489ca2b5937696c31836040516118be9190614ac8565b60405180910390a35050565b6118db6118d561247b565b83612606565b61191a576040517f08c379a000000000000000000000000000000000000000000000000000000000815260040161191190614f10565b60405180910390fd5b61192684848484612b96565b50505050565b60606119378261240f565b611976576040517f08c379a000000000000000000000000000000000000000000000000000000000815260040161196d90614ed0565b60405180910390fd5b6000611980612bf2565b905060008151116119a057604051806020016040528060008152506119cb565b806119aa84612c09565b6040516020016119bb929190614937565b6040516020818303038152906040525b915050919050565b600080601260009054906101000a900473ffffffffffffffffffffffffffffffffffffffff1673ffffffffffffffffffffffffffffffffffffffff166370a08231336040518263ffffffff1660e01b8152600401611a31919061495b565b60206040518083038186803b158015611a4957600080fd5b505afa158015611a5d573d6000803e3d6000fd5b505050506040513d601f19601f82011682018060405250810190611a819190614292565b11611ac1576040517f08c379a0000000000000000000000000000000000000000000000000000000008152600401611ab890614bf0565b60405180910390fd5b6000601260009054906101000a900473ffffffffffffffffffffffffffffffffffffffff1673ffffffffffffffffffffffffffffffffffffffff1663dd62ed3e33306040518363ffffffff1660e01b8152600401611b2092919061499f565b60206040518083038186803b158015611b3857600080fd5b505afa158015611b4c573d6000803e3d6000fd5b505050506040513d601f19601f82011682018060405250810190611b709190614292565b11611bb0576040517f08c379a0000000000000000000000000000000000000000000000000000000008152600401611ba790614f70565b60405180910390fd5b6014881115611bf4576040517f08c379a0000000000000000000000000000000000000000000000000000000008152600401611beb90614d70565b60405180910390fd5b6000881415611c38576040517f08c379a0000000000000000000000000000000000000000000000000000000008152600401611c2f90614e10565b60405180910390fd5b60016000815480929190611c4b90615307565b9190505550600260003373ffffffffffffffffffffffffffffffffffffffff1673ffffffffffffffffffffffffffffffffffffffff16815260200190815260200160002060030160019054906101000a900460ff16611deb576040518060a001604052808481526020013373ffffffffffffffffffffffffffffffffffffffff16815260200183815260200160001515815260200160011515815250600260003373ffffffffffffffffffffffffffffffffffffffff1673ffffffffffffffffffffffffffffffffffffffff1681526020019081526020016000206000820151816000019080519060200190611d42929190613d14565b5060208201518160010160006101000a81548173ffffffffffffffffffffffffffffffffffffffff021916908373ffffffffffffffffffffffffffffffffffffffff1602179055506040820151816002019080519060200190611da6929190613d14565b5060608201518160030160006101000a81548160ff02191690831515021790555060808201518160030160016101000a81548160ff0219169083151502179055509050505b6000600460003373ffffffffffffffffffffffffffffffffffffffff1673ffffffffffffffffffffffffffffffffffffffff1681526020019081526020016000205490506040518060e001604052803373ffffffffffffffffffffffffffffffffffffffff1681526020018973ffffffffffffffffffffffffffffffffffffffff16815260200188815260200187815260200160016002811115611eb8577f4e487b7100000000000000000000000000000000000000000000000000000000600052602160045260246000fd5b815260200186151581526020018a815250600560003373ffffffffffffffffffffffffffffffffffffffff1673ffffffffffffffffffffffffffffffffffffffff168152602001908152602001600020600083815260200190815260200160002060008201518160000160006101000a81548173ffffffffffffffffffffffffffffffffffffffff021916908373ffffffffffffffffffffffffffffffffffffffff16021790555060208201518160010160006101000a81548173ffffffffffffffffffffffffffffffffffffffff021916908373ffffffffffffffffffffffffffffffffffffffff1602179055506040820151816002019080519060200190611fc3929190613d14565b506060820151816003019080519060200190611fe0929190613d9a565b506080820151816004015560a08201518160050160006101000a81548160ff02191690831515021790555060c08201518160060155905050600460003373ffffffffffffffffffffffffffffffffffffffff1673ffffffffffffffffffffffffffffffffffffffff168152602001908152602001600020600081548092919061206890615307565b91905055508660405161207b9190614920565b60405180910390203373ffffffffffffffffffffffffffffffffffffffff167f9042e5647d6e4922998cda262eb9ec97928c51e4f01aa8bfbddf71bc231c7b6688846040516120cb929190614b43565b60405180910390a360005b89811015612115576120e86011612db6565b60006120f46011612dcc565b90506121018a828a612dda565b50808061210d90615307565b9150506120d6565b506001915050979650505050505050565b60145481565b6000600b60008473ffffffffffffffffffffffffffffffffffffffff1673ffffffffffffffffffffffffffffffffffffffff16815260200190815260200160002060008373ffffffffffffffffffffffffffffffffffffffff1673ffffffffffffffffffffffffffffffffffffffff16815260200190815260200160002060009054906101000a900460ff16905092915050565b601260009054906101000a900473ffffffffffffffffffffffffffffffffffffffff1681565b6121ee61247b565b73ffffffffffffffffffffffffffffffffffffffff1661220c61168e565b73ffffffffffffffffffffffffffffffffffffffff1614612262576040517f08c379a000000000000000000000000000000000000000000000000000000000815260040161225990614e90565b60405180910390fd5b600073ffffffffffffffffffffffffffffffffffffffff168173ffffffffffffffffffffffffffffffffffffffff1614156122d2576040517f08c379a00000000000000000000000000000000000000000000000000000000081526004016122c990614c90565b60405180910390fd5b8073ffffffffffffffffffffffffffffffffffffffff1660008054906101000a900473ffffffffffffffffffffffffffffffffffffffff1673ffffffffffffffffffffffffffffffffffffffff167f8be0079c531659141344cd1fd0a4f28419497f9722a3daafe3b4186f6b6457e060405160405180910390a3806000806101000a81548173ffffffffffffffffffffffffffffffffffffffff021916908373ffffffffffffffffffffffffffffffffffffffff16021790555050565b60015481565b60007f780e9d63000000000000000000000000000000000000000000000000000000007bffffffffffffffffffffffffffffffffffffffffffffffffffffffff1916827bffffffffffffffffffffffffffffffffffffffffffffffffffffffff19161480612408575061240782612e35565b5b9050919050565b60008073ffffffffffffffffffffffffffffffffffffffff166008600084815260200190815260200160002060009054906101000a900473ffffffffffffffffffffffffffffffffffffffff1673ffffffffffffffffffffffffffffffffffffffff1614159050919050565b600033905090565b81600a600083815260200190815260200160002060006101000a81548173ffffffffffffffffffffffffffffffffffffffff021916908373ffffffffffffffffffffffffffffffffffffffff160217905550808273ffffffffffffffffffffffffffffffffffffffff166124f683610f73565b73ffffffffffffffffffffffffffffffffffffffff167f8c5be1e5ebec7d5bd14f71427d1e84f3dd0314c0f7b2291e5b200ac8c7c3b92560405160405180910390a45050565b600080600080604185511415612569576020850151925060408501519150606085015160001a90506125ef565b6040855114156125b3576040850151602086015193507f7fffffffffffffffffffffffffffffffffffffffffffffffffffffffffffffff81169250601b8160ff1c019150506125ee565b6040517f08c379a00000000000000000000000000000000000000000000000000000000081526004016125e590614c30565b60405180910390fd5b5b6125fb86828585612f17565b935050505092915050565b60006126118261240f565b612650576040517f08c379a000000000000000000000000000000000000000000000000000000000815260040161264790614d30565b60405180910390fd5b600061265b83610f73565b90508073ffffffffffffffffffffffffffffffffffffffff168473ffffffffffffffffffffffffffffffffffffffff1614806126ca57508373ffffffffffffffffffffffffffffffffffffffff166126b2846107ff565b73ffffffffffffffffffffffffffffffffffffffff16145b806126db57506126da818561212c565b5b91505092915050565b8273ffffffffffffffffffffffffffffffffffffffff1661270482610f73565b73ffffffffffffffffffffffffffffffffffffffff161461275a576040517f08c379a000000000000000000000000000000000000000000000000000000000815260040161275190614eb0565b60405180910390fd5b600073ffffffffffffffffffffffffffffffffffffffff168273ffffffffffffffffffffffffffffffffffffffff1614156127ca576040517f08c379a00000000000000000000000000000000000000000000000000000000081526004016127c190614cd0565b60405180910390fd5b6127d58383836130a2565b6127e0600082612483565b6001600960008573ffffffffffffffffffffffffffffffffffffffff1673ffffffffffffffffffffffffffffffffffffffff16815260200190815260200160002060008282546128309190615125565b925050819055506001600960008473ffffffffffffffffffffffffffffffffffffffff1673ffffffffffffffffffffffffffffffffffffffff1681526020019081526020016000206000828254612887919061509e565b92505081905550816008600083815260200190815260200160002060006101000a81548173ffffffffffffffffffffffffffffffffffffffff021916908373ffffffffffffffffffffffffffffffffffffffff160217905550808273ffffffffffffffffffffffffffffffffffffffff168473ffffffffffffffffffffffffffffffffffffffff167fddf252ad1be2c89b69c2b068fc378daa952ba7f163c4a11628f55a4df523b3ef60405160405180910390a4505050565b612948610df0565b612987576040517f08c379a000000000000000000000000000000000000000000000000000000000815260040161297e90614c10565b60405180910390fd5b6000600c60006101000a81548160ff0219169083151502179055507f5db9ee0a495bf2e6ff9c91a7834c1ba4fdd244a5e8aa4e537bd38aeae4b073aa6129cb61247b565b6040516129d8919061495b565b60405180910390a1565b60006129ed82610f73565b90506129fb816000846130a2565b612a06600083612483565b6001600960008373ffffffffffffffffffffffffffffffffffffffff1673ffffffffffffffffffffffffffffffffffffffff1681526020019081526020016000206000828254612a569190615125565b925050819055506008600083815260200190815260200160002060006101000a81549073ffffffffffffffffffffffffffffffffffffffff021916905581600073ffffffffffffffffffffffffffffffffffffffff168273ffffffffffffffffffffffffffffffffffffffff167fddf252ad1be2c89b69c2b068fc378daa952ba7f163c4a11628f55a4df523b3ef60405160405180910390a45050565b612afb610df0565b15612b3b576040517f08c379a0000000000000000000000000000000000000000000000000000000008152600401612b3290614d50565b60405180910390fd5b6001600c60006101000a81548160ff0219169083151502179055507f62e78cea01bee320cd4e420270b5ea74000d11b0c9f74754ebdbfc544b05a258612b7f61247b565b604051612b8c919061495b565b60405180910390a1565b612ba18484846126e4565b612bad84848484613449565b612bec576040517f08c379a0000000000000000000000000000000000000000000000000000000008152600401612be390614c70565b60405180910390fd5b50505050565b606060405180602001604052806000815250905090565b60606000821415612c51576040518060400160405280600181526020017f30000000000000000000000000000000000000000000000000000000000000008152509050612db1565b600082905060005b60008214612c83578080612c6c90615307565b915050600a82612c7c91906150f4565b9150612c59565b60008167ffffffffffffffff811115612cc5577f4e487b7100000000000000000000000000000000000000000000000000000000600052604160045260246000fd5b6040519080825280601f01601f191660200182016040528015612cf75781602001600182028036833780820191505090505b5090505b60008514612daa57600182612d109190615125565b9150600a85612d1f9190615350565b6030612d2b919061509e565b60f81b818381518110612d67577f4e487b7100000000000000000000000000000000000000000000000000000000600052603260045260246000fd5b60200101907effffffffffffffffffffffffffffffffffffffffffffffffffffffffffffff1916908160001a905350600a85612da391906150f4565b9450612cfb565b8093505050505b919050565b6001816000016000828254019250508190555050565b600081600001549050919050565b612de483836135e0565b612df16000848484613449565b612e30576040517f08c379a0000000000000000000000000000000000000000000000000000000008152600401612e2790614c70565b60405180910390fd5b505050565b60007f80ac58cd000000000000000000000000000000000000000000000000000000007bffffffffffffffffffffffffffffffffffffffffffffffffffffffff1916827bffffffffffffffffffffffffffffffffffffffffffffffffffffffff19161480612f0057507f5b5e139f000000000000000000000000000000000000000000000000000000007bffffffffffffffffffffffffffffffffffffffffffffffffffffffff1916827bffffffffffffffffffffffffffffffffffffffffffffffffffffffff1916145b80612f105750612f0f826137ae565b5b9050919050565b60007f7fffffffffffffffffffffffffffffff5d576e7357a4501ddfe92f46681b20a08260001c1115612f7f576040517f08c379a0000000000000000000000000000000000000000000000000000000008152600401612f7690614d10565b60405180910390fd5b601b8460ff161480612f945750601c8460ff16145b612fd3576040517f08c379a0000000000000000000000000000000000000000000000000000000008152600401612fca90614e30565b60405180910390fd5b600060018686868660405160008152602001604052604051612ff89493929190614ae3565b6020604051602081039080840390855afa15801561301a573d6000803e3d6000fd5b505050602060405103519050600073ffffffffffffffffffffffffffffffffffffffff168173ffffffffffffffffffffffffffffffffffffffff161415613096576040517f08c379a000000000000000000000000000000000000000000000000000000000815260040161308d90614bb0565b60405180910390fd5b80915050949350505050565b600073ffffffffffffffffffffffffffffffffffffffff168373ffffffffffffffffffffffffffffffffffffffff1614801561310b5750600073ffffffffffffffffffffffffffffffffffffffff168273ffffffffffffffffffffffffffffffffffffffff1614155b1561326e57601260009054906101000a900473ffffffffffffffffffffffffffffffffffffffff1673ffffffffffffffffffffffffffffffffffffffff166323b872dd33306014546040518463ffffffff1660e01b815260040161317193929190614a45565b602060405180830381600087803b15801561318b57600080fd5b505af115801561319f573d6000803e3d6000fd5b505050506040513d601f19601f820116820180604052508101906131c3919061419a565b613202576040517f08c379a00000000000000000000000000000000000000000000000000000000081526004016131f990614db0565b60405180910390fd5b3373ffffffffffffffffffffffffffffffffffffffff163373ffffffffffffffffffffffffffffffffffffffff16827fbe88f4b50295cd4ba6297b8faffa2e54364bd9520682ecdfa7ac6f44b931e9946014546000604051613265929190614fab565b60405180910390a45b3373ffffffffffffffffffffffffffffffffffffffff168373ffffffffffffffffffffffffffffffffffffffff161480156132d65750600073ffffffffffffffffffffffffffffffffffffffff168273ffffffffffffffffffffffffffffffffffffffff1614155b1561343957601260009054906101000a900473ffffffffffffffffffffffffffffffffffffffff1673ffffffffffffffffffffffffffffffffffffffff166323b872dd33306014546040518463ffffffff1660e01b815260040161333c93929190614a45565b602060405180830381600087803b15801561335657600080fd5b505af115801561336a573d6000803e3d6000fd5b505050506040513d601f19601f8201168201806040525081019061338e919061419a565b6133cd576040517f08c379a00000000000000000000000000000000000000000000000000000000081526004016133c490614db0565b60405180910390fd5b3373ffffffffffffffffffffffffffffffffffffffff163373ffffffffffffffffffffffffffffffffffffffff16827fbe88f4b50295cd4ba6297b8faffa2e54364bd9520682ecdfa7ac6f44b931e9946014546000604051613430929190614fab565b60405180910390a45b613444838383613818565b505050565b600061346a8473ffffffffffffffffffffffffffffffffffffffff1661392c565b156135d3578373ffffffffffffffffffffffffffffffffffffffff1663150b7a0261349361247b565b8786866040518563ffffffff1660e01b81526004016134b59493929190614a7c565b602060405180830381600087803b1580156134cf57600080fd5b505af192505050801561350057506040513d601f19601f820116820180604052508101906134fd9190614240565b60015b613583573d8060008114613530576040519150601f19603f3d011682016040523d82523d6000602084013e613535565b606091505b5060008151141561357b576040517f08c379a000000000000000000000000000000000000000000000000000000000815260040161357290614c70565b60405180910390fd5b805181602001fd5b63150b7a0260e01b7bffffffffffffffffffffffffffffffffffffffffffffffffffffffff1916817bffffffffffffffffffffffffffffffffffffffffffffffffffffffff1916149150506135d8565b600190505b949350505050565b600073ffffffffffffffffffffffffffffffffffffffff168273ffffffffffffffffffffffffffffffffffffffff161415613650576040517f08c379a000000000000000000000000000000000000000000000000000000000815260040161364790614e50565b60405180910390fd5b6136598161240f565b15613699576040517f08c379a000000000000000000000000000000000000000000000000000000000815260040161369090614cb0565b60405180910390fd5b6136a5600083836130a2565b6001600960008473ffffffffffffffffffffffffffffffffffffffff1673ffffffffffffffffffffffffffffffffffffffff16815260200190815260200160002060008282546136f5919061509e565b92505081905550816008600083815260200190815260200160002060006101000a81548173ffffffffffffffffffffffffffffffffffffffff021916908373ffffffffffffffffffffffffffffffffffffffff160217905550808273ffffffffffffffffffffffffffffffffffffffff16600073ffffffffffffffffffffffffffffffffffffffff167fddf252ad1be2c89b69c2b068fc378daa952ba7f163c4a11628f55a4df523b3ef60405160405180910390a45050565b60007f01ffc9a7000000000000000000000000000000000000000000000000000000007bffffffffffffffffffffffffffffffffffffffffffffffffffffffff1916827bffffffffffffffffffffffffffffffffffffffffffffffffffffffff1916149050919050565b61382383838361393f565b600073ffffffffffffffffffffffffffffffffffffffff168373ffffffffffffffffffffffffffffffffffffffff1614156138665761386181613997565b6138a5565b8173ffffffffffffffffffffffffffffffffffffffff168373ffffffffffffffffffffffffffffffffffffffff16146138a4576138a383826139e0565b5b5b600073ffffffffffffffffffffffffffffffffffffffff168273ffffffffffffffffffffffffffffffffffffffff1614156138e8576138e381613b4d565b613927565b8273ffffffffffffffffffffffffffffffffffffffff168273ffffffffffffffffffffffffffffffffffffffff1614613926576139258282613c90565b5b5b505050565b600080823b905060008111915050919050565b61394a838383613d0f565b613952610df0565b15613992576040517f08c379a000000000000000000000000000000000000000000000000000000000815260040161398990614bd0565b60405180910390fd5b505050565b600f805490506010600083815260200190815260200160002081905550600f81908060018154018082558091505060019003906000526020600020016000909190919091505550565b600060016139ed846111d1565b6139f79190615125565b90506000600e6000848152602001908152602001600020549050818114613adc576000600d60008673ffffffffffffffffffffffffffffffffffffffff1673ffffffffffffffffffffffffffffffffffffffff168152602001908152602001600020600084815260200190815260200160002054905080600d60008773ffffffffffffffffffffffffffffffffffffffff1673ffffffffffffffffffffffffffffffffffffffff16815260200190815260200160002060008481526020019081526020016000208190555081600e600083815260200190815260200160002081905550505b600e600084815260200190815260200160002060009055600d60008573ffffffffffffffffffffffffffffffffffffffff1673ffffffffffffffffffffffffffffffffffffffff16815260200190815260200160002060008381526020019081526020016000206000905550505050565b60006001600f80549050613b619190615125565b90506000601060008481526020019081526020016000205490506000600f8381548110613bb7577f4e487b7100000000000000000000000000000000000000000000000000000000600052603260045260246000fd5b9060005260206000200154905080600f8381548110613bff577f4e487b7100000000000000000000000000000000000000000000000000000000600052603260045260246000fd5b90600052602060002001819055508160106000838152602001908152602001600020819055506010600085815260200190815260200160002060009055600f805480613c74577f4e487b7100000000000000000000000000000000000000000000000000000000600052603160045260246000fd5b6001900381819060005260206000200160009055905550505050565b6000613c9b836111d1565b905081600d60008573ffffffffffffffffffffffffffffffffffffffff1673ffffffffffffffffffffffffffffffffffffffff16815260200190815260200160002060008381526020019081526020016000208190555080600e600084815260200190815260200160002081905550505050565b505050565b828054613d20906152a4565b90600052602060002090601f016020900481019282613d425760008555613d89565b82601f10613d5b57805160ff1916838001178555613d89565b82800160010185558215613d89579182015b82811115613d88578251825591602001919060010190613d6d565b5b509050613d969190613e20565b5090565b828054613da6906152a4565b90600052602060002090601f016020900481019282613dc85760008555613e0f565b82601f10613de157805160ff1916838001178555613e0f565b82800160010185558215613e0f579182015b82811115613e0e578251825591602001919060010190613df3565b5b509050613e1c9190613e20565b5090565b5b80821115613e39576000816000905550600101613e21565b5090565b6000613e50613e4b84614ff9565b614fd4565b905082815260208101848484011115613e6857600080fd5b613e73848285615262565b509392505050565b6000613e8e613e898461502a565b614fd4565b905082815260208101848484011115613ea657600080fd5b613eb1848285615262565b509392505050565b600081359050613ec881615bf1565b92915050565b600081359050613edd81615c08565b92915050565b600081359050613ef281615c1f565b92915050565b600081519050613f0781615c1f565b92915050565b600081359050613f1c81615c36565b92915050565b600081359050613f3181615c4d565b92915050565b600081519050613f4681615c4d565b92915050565b600082601f830112613f5d57600080fd5b8135613f6d848260208601613e3d565b91505092915050565b600082601f830112613f8757600080fd5b8135613f97848260208601613e7b565b91505092915050565b600081359050613faf81615c64565b92915050565b600081519050613fc481615c64565b92915050565b600060208284031215613fdc57600080fd5b6000613fea84828501613eb9565b91505092915050565b60006020828403121561400557600080fd5b600061401384828501613ece565b91505092915050565b6000806040838503121561402f57600080fd5b600061403d85828601613eb9565b925050602061404e85828601613eb9565b9150509250929050565b60008060006060848603121561406d57600080fd5b600061407b86828701613eb9565b935050602061408c86828701613eb9565b925050604061409d86828701613fa0565b9150509250925092565b600080600080608085870312156140bd57600080fd5b60006140cb87828801613eb9565b94505060206140dc87828801613eb9565b93505060406140ed87828801613fa0565b925050606085013567ffffffffffffffff81111561410a57600080fd5b61411687828801613f4c565b91505092959194509250565b6000806040838503121561413557600080fd5b600061414385828601613eb9565b925050602061415485828601613ee3565b9150509250929050565b6000806040838503121561417157600080fd5b600061417f85828601613eb9565b925050602061419085828601613fa0565b9150509250929050565b6000602082840312156141ac57600080fd5b60006141ba84828501613ef8565b91505092915050565b600080604083850312156141d657600080fd5b60006141e485828601613f0d565b925050602083013567ffffffffffffffff81111561420157600080fd5b61420d85828601613f4c565b9150509250929050565b60006020828403121561422957600080fd5b600061423784828501613f22565b91505092915050565b60006020828403121561425257600080fd5b600061426084828501613f37565b91505092915050565b60006020828403121561427b57600080fd5b600061428984828501613fa0565b91505092915050565b6000602082840312156142a457600080fd5b60006142b284828501613fb5565b91505092915050565b600080600080600080600060e0888a0312156142d657600080fd5b60006142e48a828b01613fa0565b97505060206142f58a828b01613eb9565b965050604088013567ffffffffffffffff81111561431257600080fd5b61431e8a828b01613f76565b955050606088013567ffffffffffffffff81111561433b57600080fd5b6143478a828b01613f4c565b94505060806143588a828b01613ee3565b93505060a088013567ffffffffffffffff81111561437557600080fd5b6143818a828b01613f76565b92505060c088013567ffffffffffffffff81111561439e57600080fd5b6143aa8a828b01613f76565b91505092959891949750929550565b6143c2816151f6565b82525050565b6143d181615159565b82525050565b6143e08161517d565b82525050565b6143ef81615189565b82525050565b6143fe81615193565b82525050565b600061440f8261505b565b6144198185615071565b9350614429818560208601615271565b6144328161543d565b840191505092915050565b61444681615208565b82525050565b6144558161522c565b82525050565b600061446682615066565b6144708185615082565b9350614480818560208601615271565b6144898161543d565b840191505092915050565b600061449f82615066565b6144a98185615093565b93506144b9818560208601615271565b80840191505092915050565b60006144d2601883615082565b91506144dd8261544e565b602082019050919050565b60006144f5602b83615082565b915061450082615477565b604082019050919050565b6000614518601583615082565b9150614523826154c6565b602082019050919050565b600061453b601483615082565b9150614546826154ef565b602082019050919050565b600061455e601f83615082565b915061456982615518565b602082019050919050565b6000614581602b83615082565b915061458c82615541565b604082019050919050565b60006145a4603283615082565b91506145af82615590565b604082019050919050565b60006145c7602683615082565b91506145d2826155df565b604082019050919050565b60006145ea601c83615082565b91506145f58261562e565b602082019050919050565b600061460d602483615082565b915061461882615657565b604082019050919050565b6000614630601983615082565b915061463b826156a6565b602082019050919050565b6000614653602283615082565b915061465e826156cf565b604082019050919050565b6000614676602c83615082565b91506146818261571e565b604082019050919050565b6000614699601083615082565b91506146a48261576d565b602082019050919050565b60006146bc601b83615082565b91506146c782615796565b602082019050919050565b60006146df603883615082565b91506146ea826157bf565b604082019050919050565b6000614702601583615082565b915061470d8261580e565b602082019050919050565b6000614725602a83615082565b915061473082615837565b604082019050919050565b6000614748602983615082565b915061475382615886565b604082019050919050565b600061476b601683615082565b9150614776826158d5565b602082019050919050565b600061478e602283615082565b9150614799826158fe565b604082019050919050565b60006147b1602083615082565b91506147bc8261594d565b602082019050919050565b60006147d4602c83615082565b91506147df82615976565b604082019050919050565b60006147f7602083615082565b9150614802826159c5565b602082019050919050565b600061481a602983615082565b9150614825826159ee565b604082019050919050565b600061483d602f83615082565b915061484882615a3d565b604082019050919050565b6000614860602183615082565b915061486b82615a8c565b604082019050919050565b6000614883603183615082565b915061488e82615adb565b604082019050919050565b60006148a6602c83615082565b91506148b182615b2a565b604082019050919050565b60006148c9603083615082565b91506148d482615b79565b604082019050919050565b60006148ec601783615082565b91506148f782615bc8565b602082019050919050565b61490b816151df565b82525050565b61491a816151e9565b82525050565b600061492c8284614494565b915081905092915050565b60006149438285614494565b915061494f8284614494565b91508190509392505050565b600060208201905061497060008301846143c8565b92915050565b600060408201905061498b60008301856143b9565b6149986020830184614902565b9392505050565b60006040820190506149b460008301856143c8565b6149c160208301846143c8565b9392505050565b600060e0820190506149dd600083018a6143c8565b6149ea60208301896143c8565b81810360408301526149fc818861445b565b90508181036060830152614a108187614404565b9050614a1f6080830186614902565b614a2c60a08301856143d7565b614a3960c0830184614902565b98975050505050505050565b6000606082019050614a5a60008301866143c8565b614a6760208301856143c8565b614a746040830184614902565b949350505050565b6000608082019050614a9160008301876143c8565b614a9e60208301866143c8565b614aab6040830185614902565b8181036060830152614abd8184614404565b905095945050505050565b6000602082019050614add60008301846143d7565b92915050565b6000608082019050614af860008301876143e6565b614b056020830186614911565b614b1260408301856143e6565b614b1f60608301846143e6565b95945050505050565b6000602082019050614b3d60008301846143f5565b92915050565b60006040820190508181036000830152614b5d8185614404565b9050614b6c6020830184614902565b9392505050565b6000602082019050614b88600083018461443d565b92915050565b60006020820190508181036000830152614ba8818461445b565b905092915050565b60006020820190508181036000830152614bc9816144c5565b9050919050565b60006020820190508181036000830152614be9816144e8565b9050919050565b60006020820190508181036000830152614c098161450b565b9050919050565b60006020820190508181036000830152614c298161452e565b9050919050565b60006020820190508181036000830152614c4981614551565b9050919050565b60006020820190508181036000830152614c6981614574565b9050919050565b60006020820190508181036000830152614c8981614597565b9050919050565b60006020820190508181036000830152614ca9816145ba565b9050919050565b60006020820190508181036000830152614cc9816145dd565b9050919050565b60006020820190508181036000830152614ce981614600565b9050919050565b60006020820190508181036000830152614d0981614623565b9050919050565b60006020820190508181036000830152614d2981614646565b9050919050565b60006020820190508181036000830152614d4981614669565b9050919050565b60006020820190508181036000830152614d698161468c565b9050919050565b60006020820190508181036000830152614d89816146af565b9050919050565b60006020820190508181036000830152614da9816146d2565b9050919050565b60006020820190508181036000830152614dc9816146f5565b9050919050565b60006020820190508181036000830152614de981614718565b9050919050565b60006020820190508181036000830152614e098161473b565b9050919050565b60006020820190508181036000830152614e298161475e565b9050919050565b60006020820190508181036000830152614e4981614781565b9050919050565b60006020820190508181036000830152614e69816147a4565b9050919050565b60006020820190508181036000830152614e89816147c7565b9050919050565b60006020820190508181036000830152614ea9816147ea565b9050919050565b60006020820190508181036000830152614ec98161480d565b9050919050565b60006020820190508181036000830152614ee981614830565b9050919050565b60006020820190508181036000830152614f0981614853565b9050919050565b60006020820190508181036000830152614f2981614876565b9050919050565b60006020820190508181036000830152614f4981614899565b9050919050565b60006020820190508181036000830152614f69816148bc565b9050919050565b60006020820190508181036000830152614f89816148df565b9050919050565b6000602082019050614fa56000830184614902565b92915050565b6000604082019050614fc06000830185614902565b614fcd602083018461444c565b9392505050565b6000614fde614fef565b9050614fea82826152d6565b919050565b6000604051905090565b600067ffffffffffffffff8211156150145761501361540e565b5b61501d8261543d565b9050602081019050919050565b600067ffffffffffffffff8211156150455761504461540e565b5b61504e8261543d565b9050602081019050919050565b600081519050919050565b600081519050919050565b600082825260208201905092915050565b600082825260208201905092915050565b600081905092915050565b60006150a9826151df565b91506150b4836151df565b9250827fffffffffffffffffffffffffffffffffffffffffffffffffffffffffffffffff038211156150e9576150e8615381565b5b828201905092915050565b60006150ff826151df565b915061510a836151df565b92508261511a576151196153b0565b5b828204905092915050565b6000615130826151df565b915061513b836151df565b92508282101561514e5761514d615381565b5b828203905092915050565b6000615164826151bf565b9050919050565b6000615176826151bf565b9050919050565b60008115159050919050565b6000819050919050565b60007fffffffff0000000000000000000000000000000000000000000000000000000082169050919050565b600073ffffffffffffffffffffffffffffffffffffffff82169050919050565b6000819050919050565b600060ff82169050919050565b60006152018261523e565b9050919050565b60006152138261521a565b9050919050565b6000615225826151bf565b9050919050565b6000615237826151df565b9050919050565b600061524982615250565b9050919050565b600061525b826151bf565b9050919050565b82818337600083830152505050565b60005b8381101561528f578082015181840152602081019050615274565b8381111561529e576000848401525b50505050565b600060028204905060018216806152bc57607f821691505b602082108114156152d0576152cf6153df565b5b50919050565b6152df8261543d565b810181811067ffffffffffffffff821117156152fe576152fd61540e565b5b80604052505050565b6000615312826151df565b91507fffffffffffffffffffffffffffffffffffffffffffffffffffffffffffffffff82141561534557615344615381565b5b600182019050919050565b600061535b826151df565b9150615366836151df565b925082615376576153756153b0565b5b828206905092915050565b7f4e487b7100000000000000000000000000000000000000000000000000000000600052601160045260246000fd5b7f4e487b7100000000000000000000000000000000000000000000000000000000600052601260045260246000fd5b7f4e487b7100000000000000000000000000000000000000000000000000000000600052602260045260246000fd5b7f4e487b7100000000000000000000000000000000000000000000000000000000600052604160045260246000fd5b6000601f19601f8301169050919050565b7f45434453413a20696e76616c6964207369676e61747572650000000000000000600082015250565b7f4552433732315061757361626c653a20746f6b656e207472616e73666572207760008201527f68696c6520706175736564000000000000000000000000000000000000000000602082015250565b7f496e76616c696420746f6b656e2062616c616e63650000000000000000000000600082015250565b7f5061757361626c653a206e6f7420706175736564000000000000000000000000600082015250565b7f45434453413a20696e76616c6964207369676e6174757265206c656e67746800600082015250565b7f455243373231456e756d657261626c653a206f776e657220696e646578206f7560008201527f74206f6620626f756e6473000000000000000000000000000000000000000000602082015250565b7f4552433732313a207472616e7366657220746f206e6f6e20455243373231526560008201527f63656976657220696d706c656d656e7465720000000000000000000000000000602082015250565b7f4f776e61626c653a206e6577206f776e657220697320746865207a65726f206160008201527f6464726573730000000000000000000000000000000000000000000000000000602082015250565b7f4552433732313a20746f6b656e20616c7265616479206d696e74656400000000600082015250565b7f4552433732313a207472616e7366657220746f20746865207a65726f2061646460008201527f7265737300000000000000000000000000000000000000000000000000000000602082015250565b7f4552433732313a20617070726f766520746f2063616c6c657200000000000000600082015250565b7f45434453413a20696e76616c6964207369676e6174757265202773272076616c60008201527f7565000000000000000000000000000000000000000000000000000000000000602082015250565b7f4552433732313a206f70657261746f7220717565727920666f72206e6f6e657860008201527f697374656e7420746f6b656e0000000000000000000000000000000000000000602082015250565b7f5061757361626c653a2070617573656400000000000000000000000000000000600082015250565b7f5175616e74697479206d757374206265203230206f72206c6573730000000000600082015250565b7f4552433732313a20617070726f76652063616c6c6572206973206e6f74206f7760008201527f6e6572206e6f7220617070726f76656420666f7220616c6c0000000000000000602082015250565b7f4b4c49503a205472616e73666572206661696c65640000000000000000000000600082015250565b7f4552433732313a2062616c616e636520717565727920666f7220746865207a6560008201527f726f206164647265737300000000000000000000000000000000000000000000602082015250565b7f4552433732313a206f776e657220717565727920666f72206e6f6e657869737460008201527f656e7420746f6b656e0000000000000000000000000000000000000000000000602082015250565b7f5175616e74697479206d757374206e6f74206265203000000000000000000000600082015250565b7f45434453413a20696e76616c6964207369676e6174757265202776272076616c60008201527f7565000000000000000000000000000000000000000000000000000000000000602082015250565b7f4552433732313a206d696e7420746f20746865207a65726f2061646472657373600082015250565b7f4552433732313a20617070726f76656420717565727920666f72206e6f6e657860008201527f697374656e7420746f6b656e0000000000000000000000000000000000000000602082015250565b7f4f776e61626c653a2063616c6c6572206973206e6f7420746865206f776e6572600082015250565b7f4552433732313a207472616e73666572206f6620746f6b656e2074686174206960008201527f73206e6f74206f776e0000000000000000000000000000000000000000000000602082015250565b7f4552433732314d657461646174613a2055524920717565727920666f72206e6f60008201527f6e6578697374656e7420746f6b656e0000000000000000000000000000000000602082015250565b7f4552433732313a20617070726f76616c20746f2063757272656e74206f776e6560008201527f7200000000000000000000000000000000000000000000000000000000000000602082015250565b7f4552433732313a207472616e736665722063616c6c6572206973206e6f74206f60008201527f776e6572206e6f7220617070726f766564000000000000000000000000000000602082015250565b7f455243373231456e756d657261626c653a20676c6f62616c20696e646578206f60008201527f7574206f6620626f756e64730000000000000000000000000000000000000000602082015250565b7f4552433732314275726e61626c653a2063616c6c6572206973206e6f74206f7760008201527f6e6572206e6f7220617070726f76656400000000000000000000000000000000602082015250565b7f496e76616c696420746f6b656e20616c6c6f77616e6365000000000000000000600082015250565b615bfa81615159565b8114615c0557600080fd5b50565b615c118161516b565b8114615c1c57600080fd5b50565b615c288161517d565b8114615c3357600080fd5b50565b615c3f81615189565b8114615c4a57600080fd5b50565b615c5681615193565b8114615c6157600080fd5b50565b615c6d816151df565b8114615c7857600080fd5b5056fea2646970667358221220d23fe5c0700a4e7ab96d47713e3b127f65c5d6c01cfe84dd14c6f46ee252686864736f6c63430008040033",
  "immutableReferences": {},
  "source": "// SPDX-License-Identifier: MIT\npragma solidity ^0.8.4;\n\nimport \"./KlipCore.sol\";\nimport \"@openzeppelin/contracts/token/ERC20/IERC20.sol\";\nimport \"@openzeppelin/contracts/token/ERC721/ERC721.sol\";\nimport \"@openzeppelin/contracts/token/ERC721/extensions/ERC721Burnable.sol\";\nimport \"@openzeppelin/contracts/token/ERC721/extensions/ERC721Pausable.sol\";\nimport \"@openzeppelin/contracts/token/ERC721/extensions/ERC721Enumerable.sol\";\nimport \"@openzeppelin/contracts/utils/Counters.sol\";\n\n//TODO: Must change transferfrom to claim pattern to avoid frontrunning\n\ncontract KLIP is\n    KlipCore,\n    ERC721Burnable,\n    ERC721Pausable,\n    ERC721Enumerable\n{\n    using Counters for Counters.Counter;\n\n    Counters.Counter private _tokenIds;\n    IERC20 public stablecoin;\n    uint256 public royalty = 0;\n    uint256 public fee = 0;\n    address public paymentAddress;\n    mapping(uint256 => string) public fileUri;\n\n    event Withdrawn(address indexed paymentAddress, uint256 amount);\n\n    event ServiceFeePaid(\n        uint256 indexed tokenId,\n        address indexed from,\n        address indexed paymentAddress,\n        uint256 paidToContract,\n        uint256 paidToPaymentAddress\n    );\n\n    /**\n     * XDV Data Token\n     */\n    constructor(address tokenERC20, address newPaymentAddress)\n        ERC721(\"KLIP NFT\", \"KLIP\")\n    {\n        paymentAddress = newPaymentAddress;\n        stablecoin = IERC20(tokenERC20);\n    }\n\n    function setServiceRoyalty(uint256 _fee) public onlyOwner {\n        royalty = _fee;\n    }\n\n    function setServiceFee(uint256 _fee) public onlyOwner {\n        fee = _fee;\n    }\n\n    function setPaymentAddress(address newAddress) public onlyOwner {\n        paymentAddress = newAddress;\n    }\n\n    function supportsInterface(bytes4 interfaceId)\n        public\n        view\n        virtual\n        override(ERC721, ERC721Enumerable)\n        returns (bool)\n    {\n        return super.supportsInterface(interfaceId);\n    }\n\n    /**\n     * @dev Mints a XDV Data Token if whitelisted\n     * @return tokenIds\n     */\n\n    //TODO: to enable multiple nfts qtys or editions,\n    //Mint requires an array of hashes and each metadata hash\n    //has its own metadata such as serial numbers and other identifiers\n    function mint(\n        uint256 qty,\n        address buyer,\n        string memory buyerDid,\n        bytes memory documentURI,\n        bool encrypted,\n        string memory name,\n        string memory did\n    ) public returns (bool) {\n       // User must have a balance\n        require(\n            stablecoin.balanceOf(msg.sender) > 0,\n            \"Invalid token balance\"\n        );\n        // User must have an allowance\n        require(\n            stablecoin.allowance(msg.sender, address(this)) > 0,\n            \"Invalid token allowance\"\n        );\n\n        require(qty <= 20, \"Quantity must be 20 or less\");\n        require(qty != 0, \"Quantity must not be 0\");\n        publisherCount++;\n\n        if (!minters[msg.sender].enabled) {\n            minters[msg.sender] = Publisher({\n                name: name,\n                paymentAddress: msg.sender,\n                did: did,\n                hasUserKyc: false,\n                enabled: true\n            });\n        }\n        uint256 i = minterDocumentRequestCounter[msg.sender];\n\n        // Assign request to minter\n        // We should move to use XDV Worker Protocol\n        minterDocumentRequests[msg.sender][i] = MintingRequest({\n            //TODOs: implement quantity in existence\n            //[Temporary for the demo] only 1 in existence for each nft \n            //later we could control the quantity at the minting\n            publisher: msg.sender,\n            buyer: buyer,\n            buyerDid: buyerDid,\n            documentURI: documentURI,\n            status: uint256(DocumentMintingRequestStatus.MINTED),\n            encrypted: encrypted,\n            qty: qty\n        });\n        minterDocumentRequestCounter[msg.sender]++;\n\n        emit DocumentAnchored(msg.sender, buyerDid, documentURI, i);\n\n        \n        for (uint j=0 ; j < qty ; j++){\n            _tokenIds.increment();\n            uint newItemId = _tokenIds.current();\n            _safeMint(buyer, newItemId, documentURI);\n        }\n        return true;\n    }\n\n    /**\n     * @dev Prevents the contract from working until `unpause()` is called.\n     * Used for Emergencies.\n     */\n    function pause() external onlyOwner {\n        _pause();\n    }\n\n    /**\n     * @dev If the contract is `paused()`, this will allow it to work again.\n     */\n    function unpause() external onlyOwner {\n        _unpause();\n    }\n\n    /**\n     * @dev Custom hook implementation.\n     */\n    function _beforeTokenTransfer(\n        address from,\n        address to,\n        uint256 tokenId\n    ) internal virtual override(ERC721, ERC721Pausable, ERC721Enumerable) {\n        // Minting by publisher\n        if (from == address(0) && to != address(0)) {\n            // Transfer tokens to pay service fee\n            //When alice transfers to bob it must charge service fee\n            require(\n                stablecoin.transferFrom( //Klip marketplace fee\n                    msg.sender,\n                    address(this),\n                    fee\n                ),\n                \"KLIP: Transfer failed\"\n            );\n\n            emit ServiceFeePaid(\n                tokenId,\n                msg.sender,\n                msg.sender,\n                fee,\n                0\n            );        \n        }\n\n        // Resale\n        if (from == msg.sender && to != address(0)) {\n            require(\n                stablecoin.transferFrom( //Klip marketplace fee\n                    msg.sender,\n                    address(this),\n                    fee\n                ),\n                \"KLIP: Transfer failed\"\n            );\n\n            // Pending royalty\n            emit ServiceFeePaid(\n                tokenId,\n                msg.sender,\n                msg.sender,\n                fee,\n                0\n            );        \n        }\n        super._beforeTokenTransfer(from, to, tokenId);\n    }\n\n    /**\n     * @dev tries to execute the payment when the token is transfered.\n     * Reverts if the payment procedure could not be completed.\n     */\n    function _paymentBeforeTransfer(address tokenHolder, uint256 tokenId)\n        internal\n        virtual\n    {\n        require(\n            paymentAddress != address(0),\n            \"KLIP: Must have a payment address\"\n        );\n\n        // Transfer nft tokenid to bob\n        // TODO to pay service fee to alice\n        // When alice transfers to bob it must charge service fee\n        stablecoin.transferFrom( //Klip marketplace fee\n            tokenHolder,\n            address(this),\n            tokenId\n        );\n\n        stablecoin.transferFrom( // NFT/Product payment from minter to buyer\n            tokenHolder,\n            paymentAddress,\n            tokenId\n        );\n        //TODO:\n        //Might have to add the transfer for when\n        //bob from bob to alice for when the nft is resold\n\n        emit ServiceFeePaid(\n            tokenId,\n            tokenHolder,\n            paymentAddress,\n            fee,\n            royalty\n        );\n    }\n\n    function withdrawBalance(address payable payee) public onlyOwner {\n        uint256 balance = stablecoin.balanceOf(address(this));\n        \n        stablecoin.transfer(payee, balance);\n\n        emit Withdrawn(payee, balance);\n    }\n}",
  "sourcePath": "/home/esferasoluciones-jupiter/Documents/projects/ifesa/klip-contracts/contracts/KLIP.sol",
  "compiler": {
    "name": "solc",
    "version": "0.8.4+commit.c7e474f2.Emscripten.clang"
  },
  "schemaVersion": "3.4.1",
  "updatedAt": "2021-07-09T01:31:08.750Z",
  "networkType": "ethereum",
  "devdoc": {
    "kind": "dev",
    "methods": {
      "approve(address,uint256)": {
        "details": "See {IERC721-approve}."
      },
      "balanceOf(address)": {
        "details": "See {IERC721-balanceOf}."
      },
      "burn(uint256)": {
        "details": "Burns `tokenId`. See {ERC721-_burn}. Requirements: - The caller must own `tokenId` or be an approved operator."
      },
      "getApproved(uint256)": {
        "details": "See {IERC721-getApproved}."
      },
      "isApprovedForAll(address,address)": {
        "details": "See {IERC721-isApprovedForAll}."
      },
      "isValidSignature(bytes32,bytes)": {
        "details": "ERC-1271 Compatibility. This checks that the message signature was sent by the contract's owner. Inspired by this implementation: https://github.com/OpenZeppelin/openzeppelin-contracts/blob/master/contracts/mocks/ERC1271WalletMock.sol",
        "returns": {
          "magicValue": "either 0x00000000 for false or 0x1626ba7e for true. 0x1626ba7e == bytes4(keccak256(\"isValidSignature(bytes32,bytes)\")"
        }
      },
      "mint(uint256,address,string,bytes,bool,string,string)": {
        "details": "Mints a XDV Data Token if whitelisted",
        "returns": {
          "_0": "tokenIds"
        }
      },
      "name()": {
        "details": "See {IERC721Metadata-name}."
      },
      "owner()": {
        "details": "Returns the address of the current owner."
      },
      "ownerOf(uint256)": {
        "details": "See {IERC721-ownerOf}."
      },
      "pause()": {
        "details": "Prevents the contract from working until `unpause()` is called. Used for Emergencies."
      },
      "paused()": {
        "details": "Returns true if the contract is paused, and false otherwise."
      },
      "renounceOwnership()": {
        "details": "Leaves the contract without owner. It will not be possible to call `onlyOwner` functions anymore. Can only be called by the current owner. NOTE: Renouncing ownership will leave the contract without an owner, thereby removing any functionality that is only available to the owner."
      },
      "safeTransferFrom(address,address,uint256)": {
        "details": "See {IERC721-safeTransferFrom}."
      },
      "safeTransferFrom(address,address,uint256,bytes)": {
        "details": "See {IERC721-safeTransferFrom}."
      },
      "setApprovalForAll(address,bool)": {
        "details": "See {IERC721-setApprovalForAll}."
      },
      "symbol()": {
        "details": "See {IERC721Metadata-symbol}."
      },
      "tokenByIndex(uint256)": {
        "details": "See {IERC721Enumerable-tokenByIndex}."
      },
      "tokenOfOwnerByIndex(address,uint256)": {
        "details": "See {IERC721Enumerable-tokenOfOwnerByIndex}."
      },
      "tokenURI(uint256)": {
        "details": "See {IERC721Metadata-tokenURI}."
      },
      "totalSupply()": {
        "details": "See {IERC721Enumerable-totalSupply}."
      },
      "transferFrom(address,address,uint256)": {
        "details": "See {IERC721-transferFrom}."
      },
      "transferOwnership(address)": {
        "details": "Transfers ownership of the contract to a new account (`newOwner`). Can only be called by the current owner."
      },
      "unpause()": {
        "details": "If the contract is `paused()`, this will allow it to work again."
      }
    },
    "version": 1
  },
  "userdoc": {
    "kind": "user",
    "methods": {
      "constructor": {
        "notice": "XDV Data Token"
      }
    },
    "version": 1
  }
}